{
  "contractName": "GMTXReceiver",
  "abi": [
    {
      "inputs": [
        {
          "internalType": "bool",
          "name": "useMirror",
          "type": "bool"
        }
      ],
      "payable": false,
      "stateMutability": "nonpayable",
      "type": "constructor"
    },
    {
      "anonymous": false,
      "inputs": [
        {
          "indexed": false,
          "internalType": "bytes32",
          "name": "hash",
          "type": "bytes32"
        }
      ],
      "name": "GMTXReceived",
      "type": "event"
    },
    {
      "constant": true,
      "inputs": [],
      "name": "gmtx_mirror",
      "outputs": [
        {
          "internalType": "address",
          "name": "",
          "type": "address"
        }
      ],
      "payable": false,
      "stateMutability": "view",
      "type": "function"
    },
    {
      "constant": true,
      "inputs": [
        {
          "internalType": "address",
          "name": "",
          "type": "address"
        }
      ],
      "name": "gmtx_nonce",
      "outputs": [
        {
          "internalType": "uint256",
          "name": "",
          "type": "uint256"
        }
      ],
      "payable": false,
      "stateMutability": "view",
      "type": "function"
    },
    {
      "constant": true,
      "inputs": [
        {
          "internalType": "bytes32",
          "name": "",
          "type": "bytes32"
        }
      ],
      "name": "gmtx_replay",
      "outputs": [
        {
          "internalType": "bool",
          "name": "",
          "type": "bool"
        }
      ],
      "payable": false,
      "stateMutability": "view",
      "type": "function"
    },
    {
      "constant": false,
      "inputs": [
        {
          "components": [
            {
              "internalType": "address",
              "name": "sender",
              "type": "address"
            },
            {
              "internalType": "bytes",
              "name": "data",
              "type": "bytes"
            },
            {
              "internalType": "uint256",
              "name": "value",
              "type": "uint256"
            },
            {
              "internalType": "uint256",
              "name": "nonce",
              "type": "uint256"
            },
            {
              "internalType": "uint256",
              "name": "expiry",
              "type": "uint256"
            },
            {
              "internalType": "bytes32",
              "name": "salt",
              "type": "bytes32"
            }
          ],
          "internalType": "struct ERC712GMTX.GMTX",
          "name": "_metatx",
          "type": "tuple"
        },
        {
          "internalType": "bytes",
          "name": "_signature",
          "type": "bytes"
        }
      ],
      "name": "receiveMetaTx",
      "outputs": [],
      "payable": true,
      "stateMutability": "payable",
      "type": "function"
    },
    {
      "constant": true,
      "inputs": [],
      "name": "gmtx_domain",
      "outputs": [
        {
          "components": [
            {
              "internalType": "string",
              "name": "name",
              "type": "string"
            },
            {
              "internalType": "string",
              "name": "version",
              "type": "string"
            },
            {
              "internalType": "uint256",
              "name": "chainId",
              "type": "uint256"
            },
            {
              "internalType": "address",
              "name": "verifyingContract",
              "type": "address"
            }
          ],
          "internalType": "struct ERC712Base.EIP712Domain",
          "name": "",
          "type": "tuple"
        }
      ],
      "payable": false,
      "stateMutability": "view",
      "type": "function"
    }
  ],
  "bytecode": "0x60806040523480156200001157600080fd5b5060405162001278380380620012788339810160408190526200003491620001e3565b604080518082018252601181527008ecadccae4c2d8d2f4cac89acae8c2a8b607b1b60208083019182528351808501909452600c84526b302e302e312d626574612e3160a01b90840152815191929162000091916000916200011d565b508051620000a79060019060208401906200011d565b50505080156200010357604051620000bf90620001a2565b604051809103906000f080158015620000dc573d6000803e3d6000fd5b50600280546001600160a01b0319166001600160a01b039290921691909117905562000116565b600280546001600160a01b031916301790555b506200022b565b828054600181600116156101000203166002900490600052602060002090601f016020900481019282601f106200016057805160ff191683800117855562000190565b8280016001018555821562000190579182015b828111156200019057825182559160200191906001019062000173565b506200019e929150620001b0565b5090565b610104806200117483390190565b620001cd91905b808211156200019e5760008155600101620001b7565b90565b8051620001dd8162000211565b92915050565b600060208284031215620001f657600080fd5b6000620002048484620001d0565b949350505050565b151590565b6200021c816200020c565b81146200022857600080fd5b50565b610f39806200023b6000396000f3fe60806040526004361061004a5760003560e01c80630533ca561461004f57806318338597146100855780638d9b3c16146100a7578063c8a5ce3a146100bc578063efc58823146100e9575b600080fd5b34801561005b57600080fd5b5061006f61006a366004610910565b61010b565b60405161007c9190610c3d565b60405180910390f35b34801561009157600080fd5b5061009a610120565b60405161007c9190610dcc565b6100ba6100b536600461094c565b610135565b005b3480156100c857600080fd5b506100dc6100d73660046108ea565b610386565b60405161007c9190610c4b565b3480156100f557600080fd5b506100fe610398565b60405161007c9190610c2f565b60036020526000908152604090205460ff1681565b610128610795565b6101306103a7565b905090565b6000610158610143846104f1565b61015361014e6103a7565b610576565b6105d2565b905061016983600001518284610606565b61018e5760405162461bcd60e51b815260040161018590610d8c565b60405180910390fd5b82516001600160a01b0316600090815260046020526040902080546001019055606083015115806101db575082516001600160a01b03166000908152600460205260409020546060840151145b6101f75760405162461bcd60e51b815260040161018590610dbc565b60008181526003602052604090205460ff16156102265760405162461bcd60e51b815260040161018590610dac565b6000818152600360205260409020805460ff19166001179055608083015115806102535750428360800151115b61026f5760405162461bcd60e51b815260040161018590610d9c565b348360400151146102925760405162461bcd60e51b815260040161018590610d7c565b60025460208085015185516040516000946060946001600160a01b039091169334936102c2939192909101610bdc565b60408051601f19818403018152908290526102dc91610bd0565b60006040518083038185875af1925050503d8060008114610319576040519150601f19603f3d011682016040523d82523d6000602084013e61031e565b606091505b50915091508115610365577fd184b6fd195011aeef978344f3630532d5f546b5a9d3a8c790418af87e95045c836040516103589190610c4b565b60405180910390a161037f565b8060405162461bcd60e51b81526004016101859190610d6b565b5050505050565b60046020526000908152604090205481565b6002546001600160a01b031681565b6103af610795565b604080516000805460a06020601f60026000196101006001871615020190941693909304928301819004028401810190945260808301818152929384939291908401828280156104405780601f1061041557610100808354040283529160200191610440565b820191906000526020600020905b81548152906001019060200180831161042357829003601f168201915b505050918352505060018054604080516020600284861615610100026000190190941693909304601f81018490048402820184019092528181529382019392918301828280156104d15780601f106104a6576101008083540402835291602001916104d1565b820191906000526020600020905b8154815290600101906020018083116104b457829003601f168201915b505050505081526020016104e36106d7565b815230602090910152905090565b60007f6372f79a8ff532f83e3c0945df9c5971df69b2d99e7f8840632a34d1b145db4f60001b8260000151836020015160405161052e9190610bd0565b60408051918290038220908601516060870151608088015160a0890151610559979695602001610c59565b604051602081830303815290604052805190602001209050919050565b60007f8b73c3c69bb8fe3d512ecc4cf759cc79239f7b179b0ffacaa9a75d522b39400f60001b82600001518051906020012083602001518051906020012084604001518560600151604051602001610559959493929190610cc1565b600081836040516020016105e7929190610bfe565b6040516020818303038152906040528051906020012090505b92915050565b6000610611846106db565b156106af57604051630b135d3f60e11b81526320c13b0b60e01b906001600160a01b03861690631626ba7e9061064d9087908790600401610d0d565b60206040518083038186803b15801561066557600080fd5b505afa158015610679573d6000803e3d6000fd5b505050506040513d601f19601f8201168201806040525061069d919081019061092e565b6001600160e01b0319161490506106d0565b836001600160a01b03166106c384846106e7565b6001600160a01b03161490505b9392505050565b4690565b3b63ffffffff16151590565b60008060008084516041146106fb57600080fd5b50505060208201516040830151606084015160001a601b81101561071d57601b015b8060ff16601b148061073257508060ff16601c145b61073b57600080fd5b6001868285856040516000815260200160405260405161075e9493929190610d2d565b6020604051602081039080840390855afa158015610780573d6000803e3d6000fd5b5050604051601f190151979650505050505050565b604051806080016040528060608152602001606081526020016000815260200160006001600160a01b031681525090565b803561060081610ecd565b803561060081610ee4565b805161060081610eed565b600082601f8301126107f857600080fd5b813561080b61080682610e04565b610ddd565b9150808252602083016020830185838301111561082757600080fd5b610832838284610e70565b50505092915050565b600060c0828403121561084d57600080fd5b61085760c0610ddd565b9050600061086584846107c6565b825250602082013567ffffffffffffffff81111561088257600080fd5b61088e848285016107e7565b60208301525060406108a2848285016107d1565b60408301525060606108b6848285016107d1565b60608301525060806108ca848285016107d1565b60808301525060a06108de848285016107d1565b60a08301525092915050565b6000602082840312156108fc57600080fd5b600061090884846107c6565b949350505050565b60006020828403121561092257600080fd5b600061090884846107d1565b60006020828403121561094057600080fd5b600061090884846107dc565b6000806040838503121561095f57600080fd5b823567ffffffffffffffff81111561097657600080fd5b6109828582860161083b565b925050602083013567ffffffffffffffff81111561099f57600080fd5b6109ab858286016107e7565b9150509250929050565b6109be81610e3e565b82525050565b6109be6109d082610e3e565b610eac565b6109be81610e49565b6109be81610e4e565b6109be6109f382610e4e565b610e4e565b6000610a0382610e2c565b610a0d8185610e30565b9350610a1d818560208601610e7c565b610a2681610ebd565b9093019392505050565b6000610a3b82610e2c565b610a458185610e39565b9350610a55818560208601610e7c565b9290920192915050565b6000610a6c601283610e30565b71474d54582f696e76616c69642d76616c756560701b815260200192915050565b6000610a9a601683610e30565b75474d54582f696e76616c69642d7369676e617475726560501b815260200192915050565b6000610acc600c83610e30565b6b11d355160bd95e1c1a5c995960a21b815260200192915050565b6000610af4600283610e39565b61190160f01b815260020192915050565b6000610b12601683610e30565b7523a6aa2c17b932b83630bc96b83932bb32b73a34b7b760511b815260200192915050565b6000610b44601283610e30565b71474d54582f696e76616c69642d6e6f6e636560701b815260200192915050565b8051608080845260009190840190610b7d82826109f8565b91505060208301518482036020860152610b9782826109f8565b9150506040830151610bac60408601826109de565b506060830151610bbf60608601826109b5565b509392505050565b6109be81610e6a565b60006106d08284610a30565b6000610be88285610a30565b9150610bf482846109c4565b5060140192915050565b6000610c0982610ae7565b9150610c1582856109e7565b602082019150610c2582846109e7565b5060200192915050565b6020810161060082846109b5565b6020810161060082846109d5565b6020810161060082846109de565b60e08101610c67828a6109de565b610c7460208301896109b5565b610c8160408301886109de565b610c8e60608301876109de565b610c9b60808301866109de565b610ca860a08301856109de565b610cb560c08301846109de565b98975050505050505050565b60a08101610ccf82886109de565b610cdc60208301876109de565b610ce960408301866109de565b610cf660608301856109de565b610d0360808301846109b5565b9695505050505050565b60408101610d1b82856109de565b818103602083015261090881846109f8565b60808101610d3b82876109de565b610d486020830186610bc7565b610d5560408301856109de565b610d6260608301846109de565b95945050505050565b602080825281016106d081846109f8565b6020808252810161060081610a5f565b6020808252810161060081610a8d565b6020808252810161060081610abf565b6020808252810161060081610b05565b6020808252810161060081610b37565b602080825281016106d08184610b65565b60405181810167ffffffffffffffff81118282101715610dfc57600080fd5b604052919050565b600067ffffffffffffffff821115610e1b57600080fd5b506020601f91909101601f19160190565b5190565b90815260200190565b919050565b600061060082610e5e565b151590565b90565b6001600160e01b03191690565b6001600160a01b031690565b60ff1690565b82818337506000910152565b60005b83811015610e97578181015183820152602001610e7f565b83811115610ea6576000848401525b50505050565b600061060082600061060082610ec7565b601f01601f191690565b60601b90565b610ed681610e3e565b8114610ee157600080fd5b50565b610ed681610e4e565b610ed681610e5156fea365627a7a72315820dc9205d2eb9b8614942af8bf6465fdb99cb485a3258874dbbe8617c763845bca6c6578706572696d656e74616cf564736f6c63430005100040608060405234801561001057600080fd5b5060e58061001f6000396000f3fe6080604052336001600160a01b031634600036604051601e929190607e565b60006040518083038185875af1925050503d80600081146059576040519150601f19603f3d011682016040523d82523d6000602084013e605e565b606091505b505050005b6000606d83856091565b935060788385846096565b50500190565b600060898284866063565b949350505050565b919050565b8281833750600091015256fea365627a7a723158209a4ca69488b3be1910cf375cbfb56c70bbd666d86f09431889424a95e4b4466d6c6578706572696d656e74616cf564736f6c63430005100040",
  "source": "pragma solidity ^0.5.0;\npragma experimental ABIEncoderV2;\n\nimport './modules/SignatureVerifier.sol';\nimport './modules/ERC712GMTX.sol';\n\ncontract GMTXMirror\n{\n\tfunction () payable external\n\t{\n\t\taddress(msg.sender).call.value(msg.value)(msg.data);\n\t}\n}\n\ncontract GMTXReceiver is SignatureVerifier, ERC712GMTX\n{\n\taddress                     public gmtx_mirror;\n\tmapping(bytes32 => bool   ) public gmtx_replay;\n\tmapping(address => uint256) public gmtx_nonce;\n\n\tevent GMTXReceived(bytes32 hash);\n\n\tconstructor(bool useMirror)\n\tpublic\n\t{\n\t\tif (useMirror)\n\t\t{\n\t\t\tgmtx_mirror = address(new GMTXMirror());\n\t\t}\n\t\telse\n\t\t{\n\t\t\tgmtx_mirror = address(this);\n\t\t}\n\t}\n\n\tfunction receiveMetaTx(GMTX memory _metatx, bytes memory _signature) public payable\n\t{\n\t\tbytes32 digest = _toEthTypedStructHash(_hash(_metatx), _hash(_domain()));\n\n\t\t// check signature\n\t\trequire(_checkSignature(_metatx.sender, digest, _signature), 'GMTX/invalid-signature');\n\n\t\t// check ordering\n\t\tgmtx_nonce[_metatx.sender]++;\n\t\trequire(_metatx.nonce == 0 || _metatx.nonce == gmtx_nonce[_metatx.sender], 'GMTX/invalid-nonce');\n\n\t\t// check replay protection\n\t\trequire(!gmtx_replay[digest], 'GMTX/replay-prevention');\n\t\tgmtx_replay[digest] = true;\n\n\t\t// check expiry\n\t\trequire(_metatx.expiry == 0 || _metatx.expiry > now, 'GMTX/expired');\n\n\t\t// check value\n\t\trequire(_metatx.value == msg.value, 'GMTX/invalid-value');\n\n\t\t// forward call: msg.sender = address(this), real sender, is appended at the end of calldata\n\t\t(bool success, bytes memory returndata) = gmtx_mirror.call.value(msg.value)(abi.encodePacked(_metatx.data, _metatx.sender));\n\n\t\tif (success)\n\t\t{\n\t\t\temit GMTXReceived(digest);\n\t\t}\n\t\telse\n\t\t{\n\t\t\trevert(string(returndata));\n\t\t}\n\t}\n\n\tfunction _msgSender()\n\tinternal view returns (address payable sender)\n\t{\n\t\treturn (msg.sender == gmtx_mirror) ? _getRelayedSender() : msg.sender;\n\t}\n\n\tfunction _getRelayedSender()\n\tinternal pure returns (address payable sender)\n\t{\n\t\tbytes memory data   = msg.data;\n\t\tuint256      length = msg.data.length;\n\t\tassembly { sender := and(mload(add(data, length)), 0xffffffffffffffffffffffffffffffffffffffff) }\n\t}\n\n\tfunction gmtx_domain()\n\tpublic view returns(EIP712Domain memory)\n\t{\n\t\treturn _domain();\n\t}\n}\n",
  "sourcePath": "/home/amxx/Work/Projects/GMTX/core/contracts/GMTXReceiver.sol",
  "compiler": {
    "name": "solc",
    "version": "0.5.16+commit.9c3226ce.Emscripten.clang"
  },
  "schemaVersion": "3.0.20",
  "updatedAt": "2020-01-30T19:19:30.839Z",
  "devdoc": {
    "methods": {}
  },
  "userdoc": {
    "methods": {}
  }
}