{
  "contractName": "GMTXReceiver",
  "abi": [
    {
      "inputs": [
        {
          "internalType": "bool",
          "name": "useMirror",
          "type": "bool"
        }
      ],
      "payable": false,
      "stateMutability": "nonpayable",
      "type": "constructor"
    },
    {
      "anonymous": false,
      "inputs": [
        {
          "indexed": false,
          "internalType": "bytes32",
          "name": "hash",
          "type": "bytes32"
        }
      ],
      "name": "GMTXReceived",
      "type": "event"
    },
    {
      "constant": true,
      "inputs": [],
      "name": "gmtx_mirror",
      "outputs": [
        {
          "internalType": "address",
          "name": "",
          "type": "address"
        }
      ],
      "payable": false,
      "stateMutability": "view",
      "type": "function"
    },
    {
      "constant": true,
      "inputs": [
        {
          "internalType": "address",
          "name": "",
          "type": "address"
        }
      ],
      "name": "gmtx_nonce",
      "outputs": [
        {
          "internalType": "uint256",
          "name": "",
          "type": "uint256"
        }
      ],
      "payable": false,
      "stateMutability": "view",
      "type": "function"
    },
    {
      "constant": true,
      "inputs": [
        {
          "internalType": "bytes32",
          "name": "",
          "type": "bytes32"
        }
      ],
      "name": "gmtx_replay",
      "outputs": [
        {
          "internalType": "bool",
          "name": "",
          "type": "bool"
        }
      ],
      "payable": false,
      "stateMutability": "view",
      "type": "function"
    },
    {
      "constant": false,
      "inputs": [
        {
          "components": [
            {
              "internalType": "address",
              "name": "from",
              "type": "address"
            },
            {
              "internalType": "bytes",
              "name": "data",
              "type": "bytes"
            },
            {
              "internalType": "uint256",
              "name": "gas",
              "type": "uint256"
            },
            {
              "internalType": "uint256",
              "name": "value",
              "type": "uint256"
            },
            {
              "internalType": "uint256",
              "name": "nonce",
              "type": "uint256"
            },
            {
              "internalType": "uint256",
              "name": "expiry",
              "type": "uint256"
            },
            {
              "internalType": "bytes32",
              "name": "salt",
              "type": "bytes32"
            }
          ],
          "internalType": "struct ERC712GMTX.GMTX",
          "name": "_metatx",
          "type": "tuple"
        },
        {
          "internalType": "bytes",
          "name": "_signature",
          "type": "bytes"
        }
      ],
      "name": "receiveMetaTx",
      "outputs": [],
      "payable": true,
      "stateMutability": "payable",
      "type": "function"
    },
    {
      "constant": true,
      "inputs": [],
      "name": "gmtx_domain",
      "outputs": [
        {
          "components": [
            {
              "internalType": "string",
              "name": "name",
              "type": "string"
            },
            {
              "internalType": "string",
              "name": "version",
              "type": "string"
            },
            {
              "internalType": "uint256",
              "name": "chainId",
              "type": "uint256"
            },
            {
              "internalType": "address",
              "name": "verifyingContract",
              "type": "address"
            }
          ],
          "internalType": "struct ERC712Base.EIP712Domain",
          "name": "",
          "type": "tuple"
        }
      ],
      "payable": false,
      "stateMutability": "view",
      "type": "function"
    }
  ],
  "bytecode": "0x60806040523480156200001157600080fd5b50604051620014cf380380620014cf8339810160408190526200003491620001e3565b604080518082018252601181527008ecadccae4c2d8d2f4cac89acae8c2a8b607b1b60208083019182528351808501909452600c84526b302e302e312d626574612e3160a01b90840152815191929162000091916000916200011d565b508051620000a79060019060208401906200011d565b50505080156200010357604051620000bf90620001a2565b604051809103906000f080158015620000dc573d6000803e3d6000fd5b50600280546001600160a01b0319166001600160a01b039290921691909117905562000116565b600280546001600160a01b031916301790555b506200022b565b828054600181600116156101000203166002900490600052602060002090601f016020900481019282601f106200016057805160ff191683800117855562000190565b8280016001018555821562000190579182015b828111156200019057825182559160200191906001019062000173565b506200019e929150620001b0565b5090565b6101d880620012f783390190565b620001cd91905b808211156200019e5760008155600101620001b7565b90565b8051620001dd8162000211565b92915050565b600060208284031215620001f657600080fd5b6000620002048484620001d0565b949350505050565b151590565b6200021c816200020c565b81146200022857600080fd5b50565b6110bc806200023b6000396000f3fe60806040526004361061004a5760003560e01c80630533ca561461004f5780631833859714610085578063b49c05e2146100a7578063c8a5ce3a146100bc578063efc58823146100e9575b600080fd5b34801561005b57600080fd5b5061006f61006a36600461098a565b61010b565b60405161007c9190610d30565b60405180910390f35b34801561009157600080fd5b5061009a610120565b60405161007c9190610eee565b6100ba6100b53660046109c6565b610135565b005b3480156100c857600080fd5b506100dc6100d7366004610964565b61038f565b60405161007c9190610d3e565b3480156100f557600080fd5b506100fe6103a1565b60405161007c9190610d22565b60036020526000908152604090205460ff1681565b6101286107fb565b6101306103b0565b905090565b6000610158610143846104fa565b61015361014e6103b0565b610580565b6105dc565b905061016983600001518284610610565b61018e5760405162461bcd60e51b815260040161018590610e8e565b60405180910390fd5b82516001600160a01b0316600090815260046020526040902080546001019055608083015115806101db575082516001600160a01b03166000908152600460205260409020546080840151145b6101f75760405162461bcd60e51b815260040161018590610ede565b60008181526003602052604090205460ff16156102265760405162461bcd60e51b815260040161018590610eae565b6000818152600360205260409020805460ff1916600117905560a083015115806102535750428360a00151115b61026f5760405162461bcd60e51b815260040161018590610e9e565b348360600151146102925760405162461bcd60e51b815260040161018590610e7e565b600254604080850151602080870151875193516000956060956001600160a01b03909116949334936102ca9390923392909101610cbe565b60408051601f19818403018152908290526102e491610cb2565b600060405180830381858888f193505050503d8060008114610322576040519150601f19603f3d011682016040523d82523d6000602084013e610327565b606091505b5091509150811561036e577fd184b6fd195011aeef978344f3630532d5f546b5a9d3a8c790418af87e95045c836040516103619190610d3e565b60405180910390a1610388565b8060405162461bcd60e51b81526004016101859190610e6d565b5050505050565b60046020526000908152604090205481565b6002546001600160a01b031681565b6103b86107fb565b604080516000805460a06020601f60026000196101006001871615020190941693909304928301819004028401810190945260808301818152929384939291908401828280156104495780601f1061041e57610100808354040283529160200191610449565b820191906000526020600020905b81548152906001019060200180831161042c57829003601f168201915b505050918352505060018054604080516020600284861615610100026000190190941693909304601f81018490048402820184019092528181529382019392918301828280156104da5780601f106104af576101008083540402835291602001916104da565b820191906000526020600020905b8154815290600101906020018083116104bd57829003601f168201915b505050505081526020016104ec6106e1565b815230602090910152905090565b60006040518060a00160405280606181526020016110196061913980519060200120826000015183602001516040516105339190610cb2565b60408051918290038220908601516060870151608088015160a089015160c08a0151610563989796602001610d4c565b604051602081830303815290604052805190602001209050919050565b60007f8b73c3c69bb8fe3d512ecc4cf759cc79239f7b179b0ffacaa9a75d522b39400f60001b82600001518051906020012083602001518051906020012084604001518560600151604051602001610563959493929190610dc3565b600081836040516020016105f1929190610cf1565b6040516020818303038152906040528051906020012090505b92915050565b600061061b846106e5565b156106b957604051630b135d3f60e11b81526320c13b0b60e01b906001600160a01b03861690631626ba7e906106579087908790600401610e0f565b60206040518083038186803b15801561066f57600080fd5b505afa158015610683573d6000803e3d6000fd5b505050506040513d601f19601f820116820180604052506106a791908101906109a8565b6001600160e01b0319161490506106da565b836001600160a01b03166106cd84846106f1565b6001600160a01b03161490505b9392505050565b4690565b3b63ffffffff16151590565b60008060008084516041141561071b5750505060208201516040830151606084015160001a610760565b84516040141561074857505050602082015160408301516001600160ff1b0381169060001a60071c610760565b60405162461bcd60e51b815260040161018590610ece565b601b8160ff16101561077057601b015b8060ff16601b148061078557508060ff16601c145b6107a15760405162461bcd60e51b815260040161018590610ebe565b600186828585604051600081526020016040526040516107c49493929190610e2f565b6020604051602081039080840390855afa1580156107e6573d6000803e3d6000fd5b5050604051601f190151979650505050505050565b604051806080016040528060608152602001606081526020016000815260200160006001600160a01b031681525090565b803561060a81610fef565b803561060a81611006565b805161060a8161100f565b600082601f83011261085e57600080fd5b813561087161086c82610f26565b610eff565b9150808252602083016020830185838301111561088d57600080fd5b610898838284610f92565b50505092915050565b600060e082840312156108b357600080fd5b6108bd60e0610eff565b905060006108cb848461082c565b825250602082013567ffffffffffffffff8111156108e857600080fd5b6108f48482850161084d565b602083015250604061090884828501610837565b604083015250606061091c84828501610837565b606083015250608061093084828501610837565b60808301525060a061094484828501610837565b60a08301525060c061095884828501610837565b60c08301525092915050565b60006020828403121561097657600080fd5b6000610982848461082c565b949350505050565b60006020828403121561099c57600080fd5b60006109828484610837565b6000602082840312156109ba57600080fd5b60006109828484610842565b600080604083850312156109d957600080fd5b823567ffffffffffffffff8111156109f057600080fd5b6109fc858286016108a1565b925050602083013567ffffffffffffffff811115610a1957600080fd5b610a258582860161084d565b9150509250929050565b610a40610a3b82610f60565b610fce565b82525050565b610a4081610f60565b610a4081610f6b565b610a4081610f70565b610a40610a6d82610f70565b610f70565b6000610a7d82610f4e565b610a878185610f52565b9350610a97818560208601610f9e565b610aa081610fdf565b9093019392505050565b6000610ab582610f4e565b610abf8185610f5b565b9350610acf818560208601610f9e565b9290920192915050565b6000610ae6601283610f52565b71474d54582f696e76616c69642d76616c756560701b815260200192915050565b6000610b14601683610f52565b75474d54582f696e76616c69642d7369676e617475726560501b815260200192915050565b6000610b46600c83610f52565b6b11d355160bd95e1c1a5c995960a21b815260200192915050565b6000610b6e600283610f5b565b61190160f01b815260020192915050565b6000610b8c601683610f52565b7523a6aa2c17b932b83630bc96b83932bb32b73a34b7b760511b815260200192915050565b6000610bbe601383610f52565b7234b73b30b634b216b9b4b3b730ba3ab93296bb60691b815260200192915050565b6000610bed601883610f52565b7f696e76616c69642d7369676e61747572652d666f726d61740000000000000000815260200192915050565b6000610c26601283610f52565b71474d54582f696e76616c69642d6e6f6e636560701b815260200192915050565b8051608080845260009190840190610c5f8282610a72565b91505060208301518482036020860152610c798282610a72565b9150506040830151610c8e6040860182610a58565b506060830151610ca16060860182610a46565b509392505050565b610a4081610f8c565b60006106da8284610aaa565b6000610cca8286610aaa565b9150610cd68285610a2f565b601482019150610ce68284610a2f565b506014019392505050565b6000610cfc82610b61565b9150610d088285610a61565b602082019150610d188284610a61565b5060200192915050565b6020810161060a8284610a46565b6020810161060a8284610a4f565b6020810161060a8284610a58565b6101008101610d5b828b610a58565b610d68602083018a610a46565b610d756040830189610a58565b610d826060830188610a58565b610d8f6080830187610a58565b610d9c60a0830186610a58565b610da960c0830185610a58565b610db660e0830184610a58565b9998505050505050505050565b60a08101610dd18288610a58565b610dde6020830187610a58565b610deb6040830186610a58565b610df86060830185610a58565b610e056080830184610a46565b9695505050505050565b60408101610e1d8285610a58565b81810360208301526109828184610a72565b60808101610e3d8287610a58565b610e4a6020830186610ca9565b610e576040830185610a58565b610e646060830184610a58565b95945050505050565b602080825281016106da8184610a72565b6020808252810161060a81610ad9565b6020808252810161060a81610b07565b6020808252810161060a81610b39565b6020808252810161060a81610b7f565b6020808252810161060a81610bb1565b6020808252810161060a81610be0565b6020808252810161060a81610c19565b602080825281016106da8184610c47565b60405181810167ffffffffffffffff81118282101715610f1e57600080fd5b604052919050565b600067ffffffffffffffff821115610f3d57600080fd5b506020601f91909101601f19160190565b5190565b90815260200190565b919050565b600061060a82610f80565b151590565b90565b6001600160e01b03191690565b6001600160a01b031690565b60ff1690565b82818337506000910152565b60005b83811015610fb9578181015183820152602001610fa1565b83811115610fc8576000848401525b50505050565b600061060a82600061060a82610fe9565b601f01601f191690565b60601b90565b610ff881610f60565b811461100357600080fd5b50565b610ff881610f70565b610ff881610f7356fe474d545828616464726573732066726f6d2c627974657320646174612c75696e74323536206761732c75696e743235362076616c75652c75696e74323536206e6f6e63652c75696e74323536206578706972792c627974657333322073616c7429a365627a7a72315820ec41f0433362d359d08ff4ed9eb61e828bea936b0479e12367672b57d1b15c996c6578706572696d656e74616cf564736f6c63430005100040608060405234801561001057600080fd5b506101b8806100206000396000f3fe608060405260006060336001600160a01b0316346000366040516100249291906100f0565b60006040518083038185875af1925050503d8060008114610061576040519150601f19603f3d011682016040523d82523d6000602084013e610066565b606091505b50915091508181906100945760405162461bcd60e51b815260040161008b9190610105565b60405180910390fd5b505050005b60006100a58385610121565b93506100b283858461012f565b50500190565b60006100c38261011d565b6100cd8185610126565b93506100dd81856020860161013b565b6100e68161016b565b9093019392505050565b60006100fd828486610099565b949350505050565b6020808252810161011681846100b8565b9392505050565b5190565b919050565b90815260200190565b82818337506000910152565b60005b8381101561015657818101518382015260200161013e565b83811115610165576000848401525b50505050565b601f01601f19169056fea365627a7a723158205b51ba9e7117c57b5061c2f512f3b27d6b748bf7aa92cb865d9512386a9548886c6578706572696d656e74616cf564736f6c63430005100040",
  "source": "pragma solidity ^0.5.0;\npragma experimental ABIEncoderV2;\n\nimport './modules/SignatureVerifier.sol';\nimport './modules/ERC712GMTX.sol';\n\ncontract GMTXMirror\n{\n\tfunction () payable external\n\t{\n\t\t(bool success, bytes memory returnData) = address(msg.sender).call.value(msg.value)(msg.data);\n\t\trequire(success, string(returnData));\n\t}\n}\n\ncontract GMTXReceiver is SignatureVerifier, ERC712GMTX\n{\n\taddress                     public gmtx_mirror;\n\tmapping(bytes32 => bool   ) public gmtx_replay;\n\tmapping(address => uint256) public gmtx_nonce;\n\n\tevent GMTXReceived(bytes32 hash);\n\n\tconstructor(bool useMirror)\n\tpublic\n\t{\n\t\tif (useMirror)\n\t\t{\n\t\t\tgmtx_mirror = address(new GMTXMirror());\n\t\t}\n\t\telse\n\t\t{\n\t\t\tgmtx_mirror = address(this);\n\t\t}\n\t}\n\n\tfunction receiveMetaTx(GMTX memory _metatx, bytes memory _signature) public payable\n\t{\n\t\tbytes32 digest = _toEthTypedStructHash(_hash(_metatx), _hash(_domain()));\n\n\t\t// check signature\n\t\trequire(_checkSignature(_metatx.from, digest, _signature), 'GMTX/invalid-signature');\n\n\t\t// check ordering\n\t\tgmtx_nonce[_metatx.from]++;\n\t\trequire(_metatx.nonce == 0 || _metatx.nonce == gmtx_nonce[_metatx.from], 'GMTX/invalid-nonce');\n\n\t\t// check replay protection\n\t\trequire(!gmtx_replay[digest], 'GMTX/replay-prevention');\n\t\tgmtx_replay[digest] = true;\n\n\t\t// check expiry\n\t\trequire(_metatx.expiry == 0 || _metatx.expiry > now, 'GMTX/expired');\n\n\t\t// check value\n\t\trequire(_metatx.value == msg.value, 'GMTX/invalid-value');\n\n\t\t// forward call: msg.sender = address(this), relayer and real sender are appended at the end of calldata\n\t\t\t(bool success, bytes memory returndata) = gmtx_mirror.call.gas(_metatx.gas).value(msg.value)(abi.encodePacked(_metatx.data, msg.sender, _metatx.from));\n\n\t\tif (success)\n\t\t{\n\t\t\temit GMTXReceived(digest);\n\t\t}\n\t\telse\n\t\t{\n\t\t\trevert(string(returndata));\n\t\t}\n\t}\n\n\tfunction _msgSender()\n\tinternal view returns (address payable sender)\n\t{\n\t\treturn (msg.sender == gmtx_mirror) ? _extractSender() : msg.sender;\n\t}\n\n\tfunction _msgRelayer()\n\tinternal view returns (address payable sender)\n\t{\n\t\treturn (msg.sender == gmtx_mirror) ? _extractRelayer() : msg.sender;\n\t}\n\n\tfunction _extractSender()\n\tinternal pure returns (address payable sender)\n\t{\n\t\tbytes memory data   = msg.data;\n\t\tuint256      length = msg.data.length;\n\t\tassembly { sender := and(mload(sub(add(data, length), 0x00)), 0xffffffffffffffffffffffffffffffffffffffff) }\n\t}\n\n\tfunction _extractRelayer()\n\tinternal pure returns (address payable relayer)\n\t{\n\t\tbytes memory data   = msg.data;\n\t\tuint256      length = msg.data.length;\n\t\tassembly { relayer := and(mload(sub(add(data, length), 0x14)), 0xffffffffffffffffffffffffffffffffffffffff) }\n\t}\n\n\tfunction gmtx_domain()\n\tpublic view returns(EIP712Domain memory)\n\t{\n\t\treturn _domain();\n\t}\n}\n",
  "sourcePath": "/home/amxx/Work/Projects/GMTX/core/contracts/GMTXReceiver.sol",
  "compiler": {
    "name": "solc",
    "version": "0.5.16+commit.9c3226ce.Emscripten.clang"
  },
  "schemaVersion": "3.0.20",
  "updatedAt": "2020-01-30T19:01:55.993Z",
  "devdoc": {
    "methods": {}
  },
  "userdoc": {
    "methods": {}
  }
}