{
  "contractName": "MessageHub",
  "abi": [
    {
      "inputs": [],
      "payable": false,
      "stateMutability": "nonpayable",
      "type": "constructor"
    },
    {
      "anonymous": false,
      "inputs": [
        {
          "indexed": false,
          "internalType": "bytes32",
          "name": "hash",
          "type": "bytes32"
        }
      ],
      "name": "GMTXReceived",
      "type": "event"
    },
    {
      "anonymous": false,
      "inputs": [
        {
          "indexed": false,
          "internalType": "address",
          "name": "sender",
          "type": "address"
        },
        {
          "indexed": false,
          "internalType": "string",
          "name": "message",
          "type": "string"
        }
      ],
      "name": "NewMessage",
      "type": "event"
    },
    {
      "constant": true,
      "inputs": [],
      "name": "gmtx_domain",
      "outputs": [
        {
          "components": [
            {
              "internalType": "string",
              "name": "name",
              "type": "string"
            },
            {
              "internalType": "string",
              "name": "version",
              "type": "string"
            },
            {
              "internalType": "uint256",
              "name": "chainId",
              "type": "uint256"
            },
            {
              "internalType": "address",
              "name": "verifyingContract",
              "type": "address"
            }
          ],
          "internalType": "struct ERC712Base.EIP712Domain",
          "name": "",
          "type": "tuple"
        }
      ],
      "payable": false,
      "stateMutability": "view",
      "type": "function"
    },
    {
      "constant": true,
      "inputs": [],
      "name": "gmtx_mirror",
      "outputs": [
        {
          "internalType": "address",
          "name": "",
          "type": "address"
        }
      ],
      "payable": false,
      "stateMutability": "view",
      "type": "function"
    },
    {
      "constant": true,
      "inputs": [
        {
          "internalType": "address",
          "name": "",
          "type": "address"
        }
      ],
      "name": "gmtx_nonce",
      "outputs": [
        {
          "internalType": "uint256",
          "name": "",
          "type": "uint256"
        }
      ],
      "payable": false,
      "stateMutability": "view",
      "type": "function"
    },
    {
      "constant": true,
      "inputs": [
        {
          "internalType": "bytes32",
          "name": "",
          "type": "bytes32"
        }
      ],
      "name": "gmtx_replay",
      "outputs": [
        {
          "internalType": "bool",
          "name": "",
          "type": "bool"
        }
      ],
      "payable": false,
      "stateMutability": "view",
      "type": "function"
    },
    {
      "constant": false,
      "inputs": [
        {
          "components": [
            {
              "internalType": "address",
              "name": "sender",
              "type": "address"
            },
            {
              "internalType": "bytes",
              "name": "data",
              "type": "bytes"
            },
            {
              "internalType": "uint256",
              "name": "value",
              "type": "uint256"
            },
            {
              "internalType": "uint256",
              "name": "nonce",
              "type": "uint256"
            },
            {
              "internalType": "uint256",
              "name": "expiry",
              "type": "uint256"
            },
            {
              "internalType": "bytes32",
              "name": "salt",
              "type": "bytes32"
            }
          ],
          "internalType": "struct ERC712GMTX.GMTX",
          "name": "_metatx",
          "type": "tuple"
        },
        {
          "internalType": "bytes",
          "name": "_signature",
          "type": "bytes"
        }
      ],
      "name": "receiveMetaTx",
      "outputs": [],
      "payable": true,
      "stateMutability": "payable",
      "type": "function"
    },
    {
      "constant": false,
      "inputs": [
        {
          "internalType": "string",
          "name": "message",
          "type": "string"
        }
      ],
      "name": "publish",
      "outputs": [],
      "payable": false,
      "stateMutability": "nonpayable",
      "type": "function"
    }
  ],
  "bytecode": "0x60806040523480156200001157600080fd5b50604080518082018252601181527008ecadccae4c2d8d2f4cac89acae8c2a8b607b1b60208083019182528351808501909452600c84526b302e302e312d626574612e3160a01b908401528151600093916200007091859190620000fc565b50805162000086906001906020840190620000fc565b5050508015620000e2576040516200009e9062000181565b604051809103906000f080158015620000bb573d6000803e3d6000fd5b50600280546001600160a01b0319166001600160a01b0392909216919091179055620000f5565b600280546001600160a01b031916301790555b50620001af565b828054600181600116156101000203166002900490600052602060002090601f016020900481019282601f106200013f57805160ff19168380011785556200016f565b828001600101855582156200016f579182015b828111156200016f57825182559160200191906001019062000152565b506200017d9291506200018f565b5090565b61010480620012c183390190565b620001ac91905b808211156200017d576000815560010162000196565b90565b61110280620001bf6000396000f3fe6080604052600436106100555760003560e01c80630533ca561461005a5780631833859714610090578063243e280b146100b25780638d9b3c16146100d4578063c8a5ce3a146100e7578063efc5882314610114575b600080fd5b34801561006657600080fd5b5061007a610075366004610a3a565b610136565b6040516100879190610dfe565b60405180910390f35b34801561009c57600080fd5b506100a561014b565b6040516100879190610f84565b3480156100be57600080fd5b506100d26100cd366004610a76565b610160565b005b6100d26100e2366004610ab8565b6101a6565b3480156100f357600080fd5b50610107610102366004610a14565b6103f7565b6040516100879190610e0c565b34801561012057600080fd5b50610129610409565b6040516100879190610dc6565b60036020526000908152604090205460ff1681565b610153610876565b61015b610418565b905090565b7f8da45d748eefefd09cc1491cd32086b6d6a0bd7063d08f05c94df9eb1404bd80610189610562565b838360405161019a93929190610dd4565b60405180910390a15050565b60006101c96101b484610585565b6101c46101bf610418565b61060a565b610666565b90506101da8360000151828461069a565b6101ff5760405162461bcd60e51b81526004016101f690610f44565b60405180910390fd5b82516001600160a01b03166000908152600460205260409020805460010190556060830151158061024c575082516001600160a01b03166000908152600460205260409020546060840151145b6102685760405162461bcd60e51b81526004016101f690610f74565b60008181526003602052604090205460ff16156102975760405162461bcd60e51b81526004016101f690610f64565b6000818152600360205260409020805460ff19166001179055608083015115806102c45750428360800151115b6102e05760405162461bcd60e51b81526004016101f690610f54565b348360400151146103035760405162461bcd60e51b81526004016101f690610f34565b60025460208085015185516040516000946060946001600160a01b03909116933493610333939192909101610d73565b60408051601f198184030181529082905261034d91610d67565b60006040518083038185875af1925050503d806000811461038a576040519150601f19603f3d011682016040523d82523d6000602084013e61038f565b606091505b509150915081156103d6577fd184b6fd195011aeef978344f3630532d5f546b5a9d3a8c790418af87e95045c836040516103c99190610e0c565b60405180910390a16103f0565b8060405162461bcd60e51b81526004016101f69190610f23565b5050505050565b60046020526000908152604090205481565b6002546001600160a01b031681565b610420610876565b604080516000805460a06020601f60026000196101006001871615020190941693909304928301819004028401810190945260808301818152929384939291908401828280156104b15780601f10610486576101008083540402835291602001916104b1565b820191906000526020600020905b81548152906001019060200180831161049457829003601f168201915b505050918352505060018054604080516020600284861615610100026000190190941693909304601f81018490048402820184019092528181529382019392918301828280156105425780601f1061051757610100808354040283529160200191610542565b820191906000526020600020905b81548152906001019060200180831161052557829003601f168201915b5050505050815260200161055461076b565b815230602090910152905090565b6002546000906001600160a01b0316331461057d573361015b565b61015b61076f565b60007f6372f79a8ff532f83e3c0945df9c5971df69b2d99e7f8840632a34d1b145db4f60001b826000015183602001516040516105c29190610d67565b60408051918290038220908601516060870151608088015160a08901516105ed979695602001610e1a565b604051602081830303815290604052805190602001209050919050565b60007f8b73c3c69bb8fe3d512ecc4cf759cc79239f7b179b0ffacaa9a75d522b39400f60001b826000015180519060200120836020015180519060200120846040015185606001516040516020016105ed959493929190610e82565b6000818360405160200161067b929190610d95565b6040516020818303038152906040528051906020012090505b92915050565b60006106a5846107bc565b1561074357604051630b135d3f60e11b81526320c13b0b60e01b906001600160a01b03861690631626ba7e906106e19087908790600401610ece565b60206040518083038186803b1580156106f957600080fd5b505afa15801561070d573d6000803e3d6000fd5b505050506040513d601f19601f820116820180604052506107319190810190610a58565b6001600160e01b031916149050610764565b836001600160a01b031661075784846107c8565b6001600160a01b03161490505b9392505050565b4690565b600060606000368080601f0160208091040260200160405190810160405280939291908181526020018383808284376000920191909152505050503601516001600160a01b031692915050565b3b63ffffffff16151590565b60008060008084516041146107dc57600080fd5b50505060208201516040830151606084015160001a601b8110156107fe57601b015b8060ff16601b148061081357508060ff16601c145b61081c57600080fd5b6001868285856040516000815260200160405260405161083f9493929190610eee565b6020604051602081039080840390855afa158015610861573d6000803e3d6000fd5b5050604051601f190151979650505050505050565b604051806080016040528060608152602001606081526020016000815260200160006001600160a01b031681525090565b803561069481611096565b8035610694816110ad565b8051610694816110b6565b600082601f8301126108d957600080fd5b81356108ec6108e782610fbc565b610f95565b9150808252602083016020830185838301111561090857600080fd5b610913838284611039565b50505092915050565b60008083601f84011261092e57600080fd5b50813567ffffffffffffffff81111561094657600080fd5b60208301915083600182028301111561095e57600080fd5b9250929050565b600060c0828403121561097757600080fd5b61098160c0610f95565b9050600061098f84846108a7565b825250602082013567ffffffffffffffff8111156109ac57600080fd5b6109b8848285016108c8565b60208301525060406109cc848285016108b2565b60408301525060606109e0848285016108b2565b60608301525060806109f4848285016108b2565b60808301525060a0610a08848285016108b2565b60a08301525092915050565b600060208284031215610a2657600080fd5b6000610a3284846108a7565b949350505050565b600060208284031215610a4c57600080fd5b6000610a3284846108b2565b600060208284031215610a6a57600080fd5b6000610a3284846108bd565b60008060208385031215610a8957600080fd5b823567ffffffffffffffff811115610aa057600080fd5b610aac8582860161091c565b92509250509250929050565b60008060408385031215610acb57600080fd5b823567ffffffffffffffff811115610ae257600080fd5b610aee85828601610965565b925050602083013567ffffffffffffffff811115610b0b57600080fd5b610b17858286016108c8565b9150509250929050565b610b2a81611028565b82525050565b610b2a81610ff6565b610b2a610b4582610ff6565b611075565b610b2a81611001565b610b2a81611006565b610b2a610b6882611006565b611006565b6000610b7882610fe4565b610b828185610fe8565b9350610b92818560208601611045565b610b9b81611086565b9093019392505050565b6000610bb082610fe4565b610bba8185610ff1565b9350610bca818560208601611045565b9290920192915050565b6000610be08385610fe8565b9350610bed838584611039565b610b9b83611086565b6000610c03601283610fe8565b71474d54582f696e76616c69642d76616c756560701b815260200192915050565b6000610c31601683610fe8565b75474d54582f696e76616c69642d7369676e617475726560501b815260200192915050565b6000610c63600c83610fe8565b6b11d355160bd95e1c1a5c995960a21b815260200192915050565b6000610c8b600283610ff1565b61190160f01b815260020192915050565b6000610ca9601683610fe8565b7523a6aa2c17b932b83630bc96b83932bb32b73a34b7b760511b815260200192915050565b6000610cdb601283610fe8565b71474d54582f696e76616c69642d6e6f6e636560701b815260200192915050565b8051608080845260009190840190610d148282610b6d565b91505060208301518482036020860152610d2e8282610b6d565b9150506040830151610d436040860182610b53565b506060830151610d566060860182610b30565b509392505050565b610b2a81611022565b60006107648284610ba5565b6000610d7f8285610ba5565b9150610d8b8284610b39565b5060140192915050565b6000610da082610c7e565b9150610dac8285610b5c565b602082019150610dbc8284610b5c565b5060200192915050565b602081016106948284610b30565b60408101610de28286610b21565b8181036020830152610df5818486610bd4565b95945050505050565b602081016106948284610b4a565b602081016106948284610b53565b60e08101610e28828a610b53565b610e356020830189610b30565b610e426040830188610b53565b610e4f6060830187610b53565b610e5c6080830186610b53565b610e6960a0830185610b53565b610e7660c0830184610b53565b98975050505050505050565b60a08101610e908288610b53565b610e9d6020830187610b53565b610eaa6040830186610b53565b610eb76060830185610b53565b610ec46080830184610b30565b9695505050505050565b60408101610edc8285610b53565b8181036020830152610a328184610b6d565b60808101610efc8287610b53565b610f096020830186610d5e565b610f166040830185610b53565b610df56060830184610b53565b602080825281016107648184610b6d565b6020808252810161069481610bf6565b6020808252810161069481610c24565b6020808252810161069481610c56565b6020808252810161069481610c9c565b6020808252810161069481610cce565b602080825281016107648184610cfc565b60405181810167ffffffffffffffff81118282101715610fb457600080fd5b604052919050565b600067ffffffffffffffff821115610fd357600080fd5b506020601f91909101601f19160190565b5190565b90815260200190565b919050565b600061069482611016565b151590565b90565b6001600160e01b03191690565b6001600160a01b031690565b60ff1690565b600061069482600061069482610ff6565b82818337506000910152565b60005b83811015611060578181015183820152602001611048565b8381111561106f576000848401525b50505050565b600061069482600061069482611090565b601f01601f191690565b60601b90565b61109f81610ff6565b81146110aa57600080fd5b50565b61109f81611006565b61109f8161100956fea365627a7a7231582057cc0ece1a901e33cadb33034ffd945d189ac4859c25e3d6c0afd728dd4923ad6c6578706572696d656e74616cf564736f6c63430005100040608060405234801561001057600080fd5b5060e58061001f6000396000f3fe6080604052336001600160a01b031634600036604051601e929190607e565b60006040518083038185875af1925050503d80600081146059576040519150601f19603f3d011682016040523d82523d6000602084013e605e565b606091505b505050005b6000606d83856091565b935060788385846096565b50500190565b600060898284866063565b949350505050565b919050565b8281833750600091015256fea365627a7a723158209a4ca69488b3be1910cf375cbfb56c70bbd666d86f09431889424a95e4b4466d6c6578706572696d656e74616cf564736f6c63430005100040",
  "source": "pragma solidity ^0.5.0;\npragma experimental ABIEncoderV2;\n\nimport '../../../core/contracts/GMTXReceiver.sol';\n\n\ncontract MessageHub is GMTXReceiver\n{\n\tevent NewMessage(address sender, string message);\n\n\tconstructor() public GMTXReceiver(false) {}\n\n\tfunction publish(string calldata message) external\n\t{\n\t\temit NewMessage(_msgSender(), message);\n\t}\n}\n",
  "sourcePath": "/home/amxx/Work/Projects/GMTX/example/solidity/contracts/MessageHub.sol",
  "compiler": {
    "name": "solc",
    "version": "0.5.16+commit.9c3226ce.Emscripten.clang"
  },
  "schemaVersion": "3.0.20",
  "updatedAt": "2020-01-30T19:20:09.717Z",
  "devdoc": {
    "methods": {}
  },
  "userdoc": {
    "methods": {}
  }
}