{
  "contractName": "MessageHub",
  "abi": [
    {
      "inputs": [],
      "payable": false,
      "stateMutability": "nonpayable",
      "type": "constructor"
    },
    {
      "anonymous": false,
      "inputs": [
        {
          "indexed": false,
          "internalType": "bytes32",
          "name": "hash",
          "type": "bytes32"
        }
      ],
      "name": "GMTXReceived",
      "type": "event"
    },
    {
      "anonymous": false,
      "inputs": [
        {
          "indexed": false,
          "internalType": "address",
          "name": "sender",
          "type": "address"
        },
        {
          "indexed": false,
          "internalType": "string",
          "name": "message",
          "type": "string"
        }
      ],
      "name": "NewMessage",
      "type": "event"
    },
    {
      "constant": true,
      "inputs": [],
      "name": "gmtx_domain",
      "outputs": [
        {
          "components": [
            {
              "internalType": "string",
              "name": "name",
              "type": "string"
            },
            {
              "internalType": "string",
              "name": "version",
              "type": "string"
            },
            {
              "internalType": "uint256",
              "name": "chainId",
              "type": "uint256"
            },
            {
              "internalType": "address",
              "name": "verifyingContract",
              "type": "address"
            }
          ],
          "internalType": "struct ERC712Base.EIP712Domain",
          "name": "",
          "type": "tuple"
        }
      ],
      "payable": false,
      "stateMutability": "view",
      "type": "function"
    },
    {
      "constant": true,
      "inputs": [],
      "name": "gmtx_mirror",
      "outputs": [
        {
          "internalType": "address",
          "name": "",
          "type": "address"
        }
      ],
      "payable": false,
      "stateMutability": "view",
      "type": "function"
    },
    {
      "constant": true,
      "inputs": [
        {
          "internalType": "address",
          "name": "",
          "type": "address"
        }
      ],
      "name": "gmtx_nonce",
      "outputs": [
        {
          "internalType": "uint256",
          "name": "",
          "type": "uint256"
        }
      ],
      "payable": false,
      "stateMutability": "view",
      "type": "function"
    },
    {
      "constant": true,
      "inputs": [
        {
          "internalType": "bytes32",
          "name": "",
          "type": "bytes32"
        }
      ],
      "name": "gmtx_replay",
      "outputs": [
        {
          "internalType": "bool",
          "name": "",
          "type": "bool"
        }
      ],
      "payable": false,
      "stateMutability": "view",
      "type": "function"
    },
    {
      "constant": false,
      "inputs": [
        {
          "components": [
            {
              "internalType": "address",
              "name": "from",
              "type": "address"
            },
            {
              "internalType": "bytes",
              "name": "data",
              "type": "bytes"
            },
            {
              "internalType": "uint256",
              "name": "value",
              "type": "uint256"
            },
            {
              "internalType": "uint256",
              "name": "nonce",
              "type": "uint256"
            },
            {
              "internalType": "uint256",
              "name": "expiry",
              "type": "uint256"
            },
            {
              "internalType": "bytes32",
              "name": "salt",
              "type": "bytes32"
            }
          ],
          "internalType": "struct ERC712GMTX.GMTX",
          "name": "_metatx",
          "type": "tuple"
        },
        {
          "internalType": "bytes",
          "name": "_signature",
          "type": "bytes"
        }
      ],
      "name": "receiveMetaTx",
      "outputs": [],
      "payable": true,
      "stateMutability": "payable",
      "type": "function"
    },
    {
      "constant": false,
      "inputs": [
        {
          "internalType": "string",
          "name": "message",
          "type": "string"
        }
      ],
      "name": "publish",
      "outputs": [],
      "payable": false,
      "stateMutability": "nonpayable",
      "type": "function"
    }
  ],
  "bytecode": "0x60806040523480156200001157600080fd5b50604080518082018252601181527008ecadccae4c2d8d2f4cac89acae8c2a8b607b1b60208083019182528351808501909452600c84526b302e302e312d626574612e3160a01b908401528151600093916200007091859190620000fc565b50805162000086906001906020840190620000fc565b5050508015620000e2576040516200009e9062000181565b604051809103906000f080158015620000bb573d6000803e3d6000fd5b50600280546001600160a01b0319166001600160a01b0392909216919091179055620000f5565b600280546001600160a01b031916301790555b50620001af565b828054600181600116156101000203166002900490600052602060002090601f016020900481019282601f106200013f57805160ff19168380011785556200016f565b828001600101855582156200016f579182015b828111156200016f57825182559160200191906001019062000152565b506200017d9291506200018f565b5090565b6101d8806200144483390190565b620001ac91905b808211156200017d576000815560010162000196565b90565b61128580620001bf6000396000f3fe6080604052600436106100555760003560e01c80630533ca561461005a5780631833859714610090578063243e280b146100b2578063b49c05e2146100d4578063c8a5ce3a146100e7578063efc5882314610114575b600080fd5b34801561006657600080fd5b5061007a610075366004610ab4565b610136565b6040516100879190610ef1565b60405180910390f35b34801561009c57600080fd5b506100a561014b565b60405161008791906110a6565b3480156100be57600080fd5b506100d26100cd366004610af0565b610160565b005b6100d26100e2366004610b32565b6101a6565b3480156100f357600080fd5b50610107610102366004610a8e565b610400565b6040516100879190610eff565b34801561012057600080fd5b50610129610412565b6040516100879190610eb9565b60036020526000908152604090205460ff1681565b6101536108dc565b61015b610421565b905090565b7f8da45d748eefefd09cc1491cd32086b6d6a0bd7063d08f05c94df9eb1404bd8061018961056b565b838360405161019a93929190610ec7565b60405180910390a15050565b60006101c96101b48461058e565b6101c46101bf610421565b610614565b610670565b90506101da836000015182846106a4565b6101ff5760405162461bcd60e51b81526004016101f690611046565b60405180910390fd5b82516001600160a01b03166000908152600460205260409020805460010190556080830151158061024c575082516001600160a01b03166000908152600460205260409020546080840151145b6102685760405162461bcd60e51b81526004016101f690611096565b60008181526003602052604090205460ff16156102975760405162461bcd60e51b81526004016101f690611066565b6000818152600360205260409020805460ff1916600117905560a083015115806102c45750428360a00151115b6102e05760405162461bcd60e51b81526004016101f690611056565b348360600151146103035760405162461bcd60e51b81526004016101f690611036565b600254604080850151602080870151875193516000956060956001600160a01b039091169493349361033b9390923392909101610e55565b60408051601f198184030181529082905261035591610e49565b600060405180830381858888f193505050503d8060008114610393576040519150601f19603f3d011682016040523d82523d6000602084013e610398565b606091505b509150915081156103df577fd184b6fd195011aeef978344f3630532d5f546b5a9d3a8c790418af87e95045c836040516103d29190610eff565b60405180910390a16103f9565b8060405162461bcd60e51b81526004016101f69190611025565b5050505050565b60046020526000908152604090205481565b6002546001600160a01b031681565b6104296108dc565b604080516000805460a06020601f60026000196101006001871615020190941693909304928301819004028401810190945260808301818152929384939291908401828280156104ba5780601f1061048f576101008083540402835291602001916104ba565b820191906000526020600020905b81548152906001019060200180831161049d57829003601f168201915b505050918352505060018054604080516020600284861615610100026000190190941693909304601f810184900484028201840190925281815293820193929183018282801561054b5780601f106105205761010080835404028352916020019161054b565b820191906000526020600020905b81548152906001019060200180831161052e57829003601f168201915b5050505050815260200161055d610775565b815230602090910152905090565b6002546000906001600160a01b03163314610586573361015b565b61015b610779565b60006040518060a00160405280606181526020016111e26061913980519060200120826000015183602001516040516105c79190610e49565b60408051918290038220908601516060870151608088015160a089015160c08a01516105f7989796602001610f0d565b604051602081830303815290604052805190602001209050919050565b60007f8b73c3c69bb8fe3d512ecc4cf759cc79239f7b179b0ffacaa9a75d522b39400f60001b826000015180519060200120836020015180519060200120846040015185606001516040516020016105f7959493929190610f84565b60008183604051602001610685929190610e88565b6040516020818303038152906040528051906020012090505b92915050565b60006106af846107c6565b1561074d57604051630b135d3f60e11b81526320c13b0b60e01b906001600160a01b03861690631626ba7e906106eb9087908790600401610fd0565b60206040518083038186803b15801561070357600080fd5b505afa158015610717573d6000803e3d6000fd5b505050506040513d601f19601f8201168201806040525061073b9190810190610ad2565b6001600160e01b03191614905061076e565b836001600160a01b031661076184846107d2565b6001600160a01b03161490505b9392505050565b4690565b600060606000368080601f0160208091040260200160405190810160405280939291908181526020018383808284376000920191909152505050503601516001600160a01b031692915050565b3b63ffffffff16151590565b6000806000808451604114156107fc5750505060208201516040830151606084015160001a610841565b84516040141561082957505050602082015160408301516001600160ff1b0381169060001a60071c610841565b60405162461bcd60e51b81526004016101f690611086565b601b8160ff16101561085157601b015b8060ff16601b148061086657508060ff16601c145b6108825760405162461bcd60e51b81526004016101f690611076565b600186828585604051600081526020016040526040516108a59493929190610ff0565b6020604051602081039080840390855afa1580156108c7573d6000803e3d6000fd5b5050604051601f190151979650505050505050565b604051806080016040528060608152602001606081526020016000815260200160006001600160a01b031681525090565b803561069e816111b8565b803561069e816111cf565b805161069e816111d8565b600082601f83011261093f57600080fd5b813561095261094d826110de565b6110b7565b9150808252602083016020830185838301111561096e57600080fd5b61097983828461115b565b50505092915050565b60008083601f84011261099457600080fd5b50813567ffffffffffffffff8111156109ac57600080fd5b6020830191508360018202830111156109c457600080fd5b9250929050565b600060e082840312156109dd57600080fd5b6109e760e06110b7565b905060006109f5848461090d565b825250602082013567ffffffffffffffff811115610a1257600080fd5b610a1e8482850161092e565b6020830152506040610a3284828501610918565b6040830152506060610a4684828501610918565b6060830152506080610a5a84828501610918565b60808301525060a0610a6e84828501610918565b60a08301525060c0610a8284828501610918565b60c08301525092915050565b600060208284031215610aa057600080fd5b6000610aac848461090d565b949350505050565b600060208284031215610ac657600080fd5b6000610aac8484610918565b600060208284031215610ae457600080fd5b6000610aac8484610923565b60008060208385031215610b0357600080fd5b823567ffffffffffffffff811115610b1a57600080fd5b610b2685828601610982565b92509250509250929050565b60008060408385031215610b4557600080fd5b823567ffffffffffffffff811115610b5c57600080fd5b610b68858286016109cb565b925050602083013567ffffffffffffffff811115610b8557600080fd5b610b918582860161092e565b9150509250929050565b610ba48161114a565b82525050565b610ba4610bb682611118565b611197565b610ba481611118565b610ba481611123565b610ba481611128565b610ba4610be282611128565b611128565b6000610bf282611106565b610bfc818561110a565b9350610c0c818560208601611167565b610c15816111a8565b9093019392505050565b6000610c2a82611106565b610c348185611113565b9350610c44818560208601611167565b9290920192915050565b6000610c5a838561110a565b9350610c6783858461115b565b610c15836111a8565b6000610c7d60128361110a565b71474d54582f696e76616c69642d76616c756560701b815260200192915050565b6000610cab60168361110a565b75474d54582f696e76616c69642d7369676e617475726560501b815260200192915050565b6000610cdd600c8361110a565b6b11d355160bd95e1c1a5c995960a21b815260200192915050565b6000610d05600283611113565b61190160f01b815260020192915050565b6000610d2360168361110a565b7523a6aa2c17b932b83630bc96b83932bb32b73a34b7b760511b815260200192915050565b6000610d5560138361110a565b7234b73b30b634b216b9b4b3b730ba3ab93296bb60691b815260200192915050565b6000610d8460188361110a565b7f696e76616c69642d7369676e61747572652d666f726d61740000000000000000815260200192915050565b6000610dbd60128361110a565b71474d54582f696e76616c69642d6e6f6e636560701b815260200192915050565b8051608080845260009190840190610df68282610be7565b91505060208301518482036020860152610e108282610be7565b9150506040830151610e256040860182610bcd565b506060830151610e386060860182610bbb565b509392505050565b610ba481611144565b600061076e8284610c1f565b6000610e618286610c1f565b9150610e6d8285610baa565b601482019150610e7d8284610baa565b506014019392505050565b6000610e9382610cf8565b9150610e9f8285610bd6565b602082019150610eaf8284610bd6565b5060200192915050565b6020810161069e8284610bbb565b60408101610ed58286610b9b565b8181036020830152610ee8818486610c4e565b95945050505050565b6020810161069e8284610bc4565b6020810161069e8284610bcd565b6101008101610f1c828b610bcd565b610f29602083018a610bbb565b610f366040830189610bcd565b610f436060830188610bcd565b610f506080830187610bcd565b610f5d60a0830186610bcd565b610f6a60c0830185610bcd565b610f7760e0830184610bcd565b9998505050505050505050565b60a08101610f928288610bcd565b610f9f6020830187610bcd565b610fac6040830186610bcd565b610fb96060830185610bcd565b610fc66080830184610bbb565b9695505050505050565b60408101610fde8285610bcd565b8181036020830152610aac8184610be7565b60808101610ffe8287610bcd565b61100b6020830186610e40565b6110186040830185610bcd565b610ee86060830184610bcd565b6020808252810161076e8184610be7565b6020808252810161069e81610c70565b6020808252810161069e81610c9e565b6020808252810161069e81610cd0565b6020808252810161069e81610d16565b6020808252810161069e81610d48565b6020808252810161069e81610d77565b6020808252810161069e81610db0565b6020808252810161076e8184610dde565b60405181810167ffffffffffffffff811182821017156110d657600080fd5b604052919050565b600067ffffffffffffffff8211156110f557600080fd5b506020601f91909101601f19160190565b5190565b90815260200190565b919050565b600061069e82611138565b151590565b90565b6001600160e01b03191690565b6001600160a01b031690565b60ff1690565b600061069e82600061069e82611118565b82818337506000910152565b60005b8381101561118257818101518382015260200161116a565b83811115611191576000848401525b50505050565b600061069e82600061069e826111b2565b601f01601f191690565b60601b90565b6111c181611118565b81146111cc57600080fd5b50565b6111c181611128565b6111c18161112b56fe474d545828616464726573732066726f6d2c627974657320646174612c75696e74323536206761732c75696e743235362076616c75652c75696e74323536206e6f6e63652c75696e74323536206578706972792c627974657333322073616c7429a365627a7a72315820e2e401fe8a64caa30b26059d4fb13555521b0bdb9dc3fbd4f4bfd692e6411a6d6c6578706572696d656e74616cf564736f6c63430005100040608060405234801561001057600080fd5b506101b8806100206000396000f3fe608060405260006060336001600160a01b0316346000366040516100249291906100f0565b60006040518083038185875af1925050503d8060008114610061576040519150601f19603f3d011682016040523d82523d6000602084013e610066565b606091505b50915091508181906100945760405162461bcd60e51b815260040161008b9190610105565b60405180910390fd5b505050005b60006100a58385610121565b93506100b283858461012f565b50500190565b60006100c38261011d565b6100cd8185610126565b93506100dd81856020860161013b565b6100e68161016b565b9093019392505050565b60006100fd828486610099565b949350505050565b6020808252810161011681846100b8565b9392505050565b5190565b919050565b90815260200190565b82818337506000910152565b60005b8381101561015657818101518382015260200161013e565b83811115610165576000848401525b50505050565b601f01601f19169056fea365627a7a723158205b51ba9e7117c57b5061c2f512f3b27d6b748bf7aa92cb865d9512386a9548886c6578706572696d656e74616cf564736f6c63430005100040",
  "source": "pragma solidity ^0.5.0;\npragma experimental ABIEncoderV2;\n\nimport '../../../core/contracts/GMTXReceiver.sol';\n\n\ncontract MessageHub is GMTXReceiver\n{\n\tevent NewMessage(address sender, string message);\n\n\tconstructor() public GMTXReceiver(false) {}\n\n\tfunction publish(string calldata message) external\n\t{\n\t\temit NewMessage(_msgSender(), message);\n\t}\n}\n",
  "sourcePath": "/home/amxx/Work/Projects/GMTX/example/solidity/contracts/MessageHub.sol",
  "compiler": {
    "name": "solc",
    "version": "0.5.16+commit.9c3226ce.Emscripten.clang"
  },
  "schemaVersion": "3.0.20",
  "updatedAt": "2020-01-30T19:03:46.017Z",
  "devdoc": {
    "methods": {}
  },
  "userdoc": {
    "methods": {}
  }
}