{
  "contractName": "MessageHub",
  "abi": [
    {
      "inputs": [],
      "payable": false,
      "stateMutability": "nonpayable",
      "type": "constructor"
    },
    {
      "anonymous": false,
      "inputs": [
        {
          "indexed": false,
          "internalType": "bytes32",
          "name": "hash",
          "type": "bytes32"
        }
      ],
      "name": "GMTXReceived",
      "type": "event"
    },
    {
      "anonymous": false,
      "inputs": [
        {
          "indexed": false,
          "internalType": "address",
          "name": "sender",
          "type": "address"
        },
        {
          "indexed": false,
          "internalType": "string",
          "name": "message",
          "type": "string"
        }
      ],
      "name": "NewMessage",
      "type": "event"
    },
    {
      "constant": true,
      "inputs": [],
      "name": "EIP712DOMAIN_TYPEHASH",
      "outputs": [
        {
          "internalType": "bytes32",
          "name": "",
          "type": "bytes32"
        }
      ],
      "payable": false,
      "stateMutability": "view",
      "type": "function"
    },
    {
      "constant": true,
      "inputs": [],
      "name": "GMTX_TYPEHASH",
      "outputs": [
        {
          "internalType": "bytes32",
          "name": "",
          "type": "bytes32"
        }
      ],
      "payable": false,
      "stateMutability": "view",
      "type": "function"
    },
    {
      "constant": true,
      "inputs": [],
      "name": "chainID",
      "outputs": [
        {
          "internalType": "uint256",
          "name": "id",
          "type": "uint256"
        }
      ],
      "payable": false,
      "stateMutability": "pure",
      "type": "function"
    },
    {
      "constant": true,
      "inputs": [],
      "name": "domain",
      "outputs": [
        {
          "components": [
            {
              "internalType": "string",
              "name": "name",
              "type": "string"
            },
            {
              "internalType": "string",
              "name": "version",
              "type": "string"
            },
            {
              "internalType": "uint256",
              "name": "chainId",
              "type": "uint256"
            },
            {
              "internalType": "address",
              "name": "verifyingContract",
              "type": "address"
            }
          ],
          "internalType": "struct ERC712Base.EIP712Domain",
          "name": "",
          "type": "tuple"
        }
      ],
      "payable": false,
      "stateMutability": "view",
      "type": "function"
    },
    {
      "constant": true,
      "inputs": [],
      "name": "gmtx_mirror",
      "outputs": [
        {
          "internalType": "address",
          "name": "",
          "type": "address"
        }
      ],
      "payable": false,
      "stateMutability": "view",
      "type": "function"
    },
    {
      "constant": true,
      "inputs": [
        {
          "internalType": "address",
          "name": "",
          "type": "address"
        }
      ],
      "name": "gmtx_nonce",
      "outputs": [
        {
          "internalType": "uint256",
          "name": "",
          "type": "uint256"
        }
      ],
      "payable": false,
      "stateMutability": "view",
      "type": "function"
    },
    {
      "constant": true,
      "inputs": [
        {
          "internalType": "bytes32",
          "name": "",
          "type": "bytes32"
        }
      ],
      "name": "gmtx_replay",
      "outputs": [
        {
          "internalType": "bool",
          "name": "",
          "type": "bool"
        }
      ],
      "payable": false,
      "stateMutability": "view",
      "type": "function"
    },
    {
      "constant": true,
      "inputs": [],
      "name": "name",
      "outputs": [
        {
          "internalType": "string",
          "name": "",
          "type": "string"
        }
      ],
      "payable": false,
      "stateMutability": "view",
      "type": "function"
    },
    {
      "constant": false,
      "inputs": [
        {
          "components": [
            {
              "internalType": "address",
              "name": "sender",
              "type": "address"
            },
            {
              "internalType": "bytes",
              "name": "data",
              "type": "bytes"
            },
            {
              "internalType": "uint256",
              "name": "value",
              "type": "uint256"
            },
            {
              "internalType": "uint256",
              "name": "nonce",
              "type": "uint256"
            },
            {
              "internalType": "uint256",
              "name": "expiry",
              "type": "uint256"
            },
            {
              "internalType": "bytes32",
              "name": "salt",
              "type": "bytes32"
            }
          ],
          "internalType": "struct ERC712GMTX.GMTX",
          "name": "_metatx",
          "type": "tuple"
        },
        {
          "internalType": "bytes",
          "name": "_signature",
          "type": "bytes"
        }
      ],
      "name": "receiveMetaTx",
      "outputs": [],
      "payable": true,
      "stateMutability": "payable",
      "type": "function"
    },
    {
      "constant": true,
      "inputs": [],
      "name": "version",
      "outputs": [
        {
          "internalType": "string",
          "name": "",
          "type": "string"
        }
      ],
      "payable": false,
      "stateMutability": "view",
      "type": "function"
    },
    {
      "constant": false,
      "inputs": [
        {
          "internalType": "string",
          "name": "message",
          "type": "string"
        }
      ],
      "name": "publish",
      "outputs": [],
      "payable": false,
      "stateMutability": "nonpayable",
      "type": "function"
    }
  ],
  "bytecode": "0x60806040523480156200001157600080fd5b50604080518082018252601181527008ecadccae4c2d8d2f4cac89acae8c2a8b607b1b60208083019182528351808501909452600c84526b302e302e312d626574612e3160a01b908401528151600093916200007091859190620000fc565b50805162000086906001906020840190620000fc565b5050508015620000e2576040516200009e9062000181565b604051809103906000f080158015620000bb573d6000803e3d6000fd5b50600280546001600160a01b0319166001600160a01b0392909216919091179055620000f5565b600280546001600160a01b031916301790555b50620001af565b828054600181600116156101000203166002900490600052602060002090601f016020900481019282601f106200013f57805160ff19168380011785556200016f565b828001600101855582156200016f579182015b828111156200016f57825182559160200191906001019062000152565b506200017d9291506200018f565b5090565b61010480620014f083390190565b620001ac91905b808211156200017d576000815560010162000196565b90565b61133180620001bf6000396000f3fe60806040526004361061009c5760003560e01c806399cd2b2f1161006457806399cd2b2f14610143578063adc879e914610165578063c2fb26a61461017a578063c49f91d31461019c578063c8a5ce3a146101b1578063efc58823146101d15761009c565b80630533ca56146100a157806306fdde03146100d7578063243e280b146100f957806354fd4d501461011b5780638d9b3c1614610130575b600080fd5b3480156100ad57600080fd5b506100c16100bc366004610c12565b6101f3565b6040516100ce9190610fd6565b60405180910390f35b3480156100e357600080fd5b506100ec610208565b6040516100ce91906110fb565b34801561010557600080fd5b50610119610114366004610c4e565b610296565b005b34801561012757600080fd5b506100ec6102dc565b61011961013e366004610c90565b610336565b34801561014f57600080fd5b50610158610587565b6040516100ce9190610fe4565b34801561017157600080fd5b506101586105aa565b34801561018657600080fd5b5061018f6105ae565b6040516100ce919061115c565b3480156101a857600080fd5b506101586106f8565b3480156101bd57600080fd5b506101586101cc366004610bec565b61071c565b3480156101dd57600080fd5b506101e661072e565b6040516100ce9190610f9e565b60036020526000908152604090205460ff1681565b6000805460408051602060026001851615610100026000190190941693909304601f8101849004840282018401909252818152929183018282801561028e5780601f106102635761010080835404028352916020019161028e565b820191906000526020600020905b81548152906001019060200180831161027157829003601f168201915b505050505081565b7f8da45d748eefefd09cc1491cd32086b6d6a0bd7063d08f05c94df9eb1404bd806102bf61073d565b83836040516102d093929190610fac565b60405180910390a15050565b60018054604080516020600284861615610100026000190190941693909304601f8101849004840282018401909252818152929183018282801561028e5780601f106102635761010080835404028352916020019161028e565b600061035961034484610765565b61035461034f6105ae565b6107e6565b610842565b905061036a83600001518284610876565b61038f5760405162461bcd60e51b81526004016103869061111c565b60405180910390fd5b82516001600160a01b0316600090815260046020526040902080546001019055606083015115806103dc575082516001600160a01b03166000908152600460205260409020546060840151145b6103f85760405162461bcd60e51b81526004016103869061114c565b60008181526003602052604090205460ff16156104275760405162461bcd60e51b81526004016103869061113c565b6000818152600360205260409020805460ff19166001179055608083015115806104545750428360800151115b6104705760405162461bcd60e51b81526004016103869061112c565b348360400151146104935760405162461bcd60e51b81526004016103869061110c565b60025460208085015185516040516000946060946001600160a01b039091169334936104c3939192909101610f4b565b60408051601f19818403018152908290526104dd91610f3f565b60006040518083038185875af1925050503d806000811461051a576040519150601f19603f3d011682016040523d82523d6000602084013e61051f565b606091505b50915091508115610566577fd184b6fd195011aeef978344f3630532d5f546b5a9d3a8c790418af87e95045c836040516105599190610fe4565b60405180910390a1610580565b8060405162461bcd60e51b815260040161038691906110fb565b5050505050565b604051806080016040528060578152602001611298605791398051906020012081565b4690565b6105b6610a4e565b604080516000805460a06020601f60026000196101006001871615020190941693909304928301819004028401810190945260808301818152929384939291908401828280156106475780601f1061061c57610100808354040283529160200191610647565b820191906000526020600020905b81548152906001019060200180831161062a57829003601f168201915b505050918352505060018054604080516020600284861615610100026000190190941693909304601f81018490048402820184019092528181529382019392918301828280156106d85780601f106106ad576101008083540402835291602001916106d8565b820191906000526020600020905b8154815290600101906020018083116106bb57829003601f168201915b505050505081526020016106ea6105aa565b815230602090910152905090565b7f8b73c3c69bb8fe3d512ecc4cf759cc79239f7b179b0ffacaa9a75d522b39400f81565b60046020526000908152604090205481565b6002546001600160a01b031681565b6002546000906001600160a01b031633146107585733610760565b610760610947565b905090565b600060405180608001604052806057815260200161129860579139805190602001208260000151836020015160405161079e9190610f3f565b60408051918290038220908601516060870151608088015160a08901516107c9979695602001610ff2565b604051602081830303815290604052805190602001209050919050565b60007f8b73c3c69bb8fe3d512ecc4cf759cc79239f7b179b0ffacaa9a75d522b39400f60001b826000015180519060200120836020015180519060200120846040015185606001516040516020016107c995949392919061105a565b60008183604051602001610857929190610f6d565b6040516020818303038152906040528051906020012090505b92915050565b600061088184610994565b1561091f57604051630b135d3f60e11b81526320c13b0b60e01b906001600160a01b03861690631626ba7e906108bd90879087906004016110a6565b60206040518083038186803b1580156108d557600080fd5b505afa1580156108e9573d6000803e3d6000fd5b505050506040513d601f19601f8201168201806040525061090d9190810190610c30565b6001600160e01b031916149050610940565b836001600160a01b031661093384846109a0565b6001600160a01b03161490505b9392505050565b600060606000368080601f0160208091040260200160405190810160405280939291908181526020018383808284376000920191909152505050503601516001600160a01b031692915050565b3b63ffffffff16151590565b60008060008084516041146109b457600080fd5b50505060208201516040830151606084015160001a601b8110156109d657601b015b8060ff16601b14806109eb57508060ff16601c145b6109f457600080fd5b60018682858560405160008152602001604052604051610a1794939291906110c6565b6020604051602081039080840390855afa158015610a39573d6000803e3d6000fd5b5050604051601f190151979650505050505050565b604051806080016040528060608152602001606081526020016000815260200160006001600160a01b031681525090565b80356108708161126e565b803561087081611285565b80516108708161128e565b600082601f830112610ab157600080fd5b8135610ac4610abf82611194565b61116d565b91508082526020830160208301858383011115610ae057600080fd5b610aeb838284611211565b50505092915050565b60008083601f840112610b0657600080fd5b50813567ffffffffffffffff811115610b1e57600080fd5b602083019150836001820283011115610b3657600080fd5b9250929050565b600060c08284031215610b4f57600080fd5b610b5960c061116d565b90506000610b678484610a7f565b825250602082013567ffffffffffffffff811115610b8457600080fd5b610b9084828501610aa0565b6020830152506040610ba484828501610a8a565b6040830152506060610bb884828501610a8a565b6060830152506080610bcc84828501610a8a565b60808301525060a0610be084828501610a8a565b60a08301525092915050565b600060208284031215610bfe57600080fd5b6000610c0a8484610a7f565b949350505050565b600060208284031215610c2457600080fd5b6000610c0a8484610a8a565b600060208284031215610c4257600080fd5b6000610c0a8484610a95565b60008060208385031215610c6157600080fd5b823567ffffffffffffffff811115610c7857600080fd5b610c8485828601610af4565b92509250509250929050565b60008060408385031215610ca357600080fd5b823567ffffffffffffffff811115610cba57600080fd5b610cc685828601610b3d565b925050602083013567ffffffffffffffff811115610ce357600080fd5b610cef85828601610aa0565b9150509250929050565b610d0281611200565b82525050565b610d02816111ce565b610d02610d1d826111ce565b61124d565b610d02816111d9565b610d02816111de565b610d02610d40826111de565b6111de565b6000610d50826111bc565b610d5a81856111c0565b9350610d6a81856020860161121d565b610d738161125e565b9093019392505050565b6000610d88826111bc565b610d9281856111c9565b9350610da281856020860161121d565b9290920192915050565b6000610db883856111c0565b9350610dc5838584611211565b610d738361125e565b6000610ddb6012836111c0565b71474d54582f696e76616c69642d76616c756560701b815260200192915050565b6000610e096016836111c0565b75474d54582f696e76616c69642d7369676e617475726560501b815260200192915050565b6000610e3b600c836111c0565b6b11d355160bd95e1c1a5c995960a21b815260200192915050565b6000610e636002836111c9565b61190160f01b815260020192915050565b6000610e816016836111c0565b7523a6aa2c17b932b83630bc96b83932bb32b73a34b7b760511b815260200192915050565b6000610eb36012836111c0565b71474d54582f696e76616c69642d6e6f6e636560701b815260200192915050565b8051608080845260009190840190610eec8282610d45565b91505060208301518482036020860152610f068282610d45565b9150506040830151610f1b6040860182610d2b565b506060830151610f2e6060860182610d08565b509392505050565b610d02816111fa565b60006109408284610d7d565b6000610f578285610d7d565b9150610f638284610d11565b5060140192915050565b6000610f7882610e56565b9150610f848285610d34565b602082019150610f948284610d34565b5060200192915050565b602081016108708284610d08565b60408101610fba8286610cf9565b8181036020830152610fcd818486610dac565b95945050505050565b602081016108708284610d22565b602081016108708284610d2b565b60e08101611000828a610d2b565b61100d6020830189610d08565b61101a6040830188610d2b565b6110276060830187610d2b565b6110346080830186610d2b565b61104160a0830185610d2b565b61104e60c0830184610d2b565b98975050505050505050565b60a081016110688288610d2b565b6110756020830187610d2b565b6110826040830186610d2b565b61108f6060830185610d2b565b61109c6080830184610d08565b9695505050505050565b604081016110b48285610d2b565b8181036020830152610c0a8184610d45565b608081016110d48287610d2b565b6110e16020830186610f36565b6110ee6040830185610d2b565b610fcd6060830184610d2b565b602080825281016109408184610d45565b6020808252810161087081610dce565b6020808252810161087081610dfc565b6020808252810161087081610e2e565b6020808252810161087081610e74565b6020808252810161087081610ea6565b602080825281016109408184610ed4565b60405181810167ffffffffffffffff8111828210171561118c57600080fd5b604052919050565b600067ffffffffffffffff8211156111ab57600080fd5b506020601f91909101601f19160190565b5190565b90815260200190565b919050565b6000610870826111ee565b151590565b90565b6001600160e01b03191690565b6001600160a01b031690565b60ff1690565b6000610870826000610870826111ce565b82818337506000910152565b60005b83811015611238578181015183820152602001611220565b83811115611247576000848401525b50505050565b600061087082600061087082611268565b601f01601f191690565b60601b90565b611277816111ce565b811461128257600080fd5b50565b611277816111de565b611277816111e156fe474d545828616464726573732073656e6465722c627974657320646174612c75696e743235362076616c75652c75696e74323536206e6f6e63652c75696e74323536206578706972792c627974657333322073616c7429a365627a7a723158205b9ccfd80b123bfb7c1f69b145731367af35ce64d94086ec39b8426cc89eabfe6c6578706572696d656e74616cf564736f6c63430005100040608060405234801561001057600080fd5b5060e58061001f6000396000f3fe6080604052336001600160a01b031634600036604051601e929190607e565b60006040518083038185875af1925050503d80600081146059576040519150601f19603f3d011682016040523d82523d6000602084013e605e565b606091505b505050005b6000606d83856091565b935060788385846096565b50500190565b600060898284866063565b949350505050565b919050565b8281833750600091015256fea365627a7a72315820f8e0a0563f311598d0867ccb960c7221a8a02df1683cf00a92c18126b105ed3b6c6578706572696d656e74616cf564736f6c63430005100040",
  "source": "pragma solidity ^0.5.0;\npragma experimental ABIEncoderV2;\n\nimport '../GMTXReceiver.sol';\n\n\ncontract MessageHub is GMTXReceiver\n{\n\tevent NewMessage(address sender, string message);\n\n\tconstructor() public GMTXReceiver(false) {}\n\n\tfunction publish(string calldata message) external\n\t{\n\t\temit NewMessage(_msgSender(), message);\n\t}\n}\n",
  "sourcePath": "/home/amxx/Work/Projects/GMTX/core/contracts/utils/MessageHub.sol",
  "compiler": {
    "name": "solc",
    "version": "0.5.16+commit.9c3226ce.Emscripten.clang"
  },
  "schemaVersion": "3.0.20",
  "updatedAt": "2020-01-10T14:06:50.810Z",
  "networkType": "ethereum",
  "devdoc": {
    "methods": {}
  },
  "userdoc": {
    "methods": {}
  }
}